{
  "contractName": "MyTokenSale",
  "abi": [
    {
      "inputs": [
        {
          "internalType": "uint256",
          "name": "rate",
          "type": "uint256"
        },
        {
          "internalType": "address payable",
          "name": "wallet",
          "type": "address"
        },
        {
          "internalType": "contract IERC20",
          "name": "_token",
          "type": "address"
        },
        {
          "internalType": "contract KycContract",
          "name": "_kyc",
          "type": "address"
        }
      ],
      "stateMutability": "nonpayable",
      "type": "constructor"
    },
    {
      "anonymous": false,
      "inputs": [
        {
          "indexed": true,
          "internalType": "address",
          "name": "purchaser",
          "type": "address"
        },
        {
          "indexed": true,
          "internalType": "address",
          "name": "beneficiary",
          "type": "address"
        },
        {
          "indexed": false,
          "internalType": "uint256",
          "name": "value",
          "type": "uint256"
        },
        {
          "indexed": false,
          "internalType": "uint256",
          "name": "amount",
          "type": "uint256"
        }
      ],
      "name": "TokensPurchased",
      "type": "event"
    },
    {
      "inputs": [],
      "name": "Rate",
      "outputs": [
        {
          "internalType": "uint256",
          "name": "",
          "type": "uint256"
        }
      ],
      "stateMutability": "view",
      "type": "function",
      "constant": true
    },
    {
      "inputs": [],
      "name": "Token",
      "outputs": [
        {
          "internalType": "contract IERC20",
          "name": "",
          "type": "address"
        }
      ],
      "stateMutability": "view",
      "type": "function",
      "constant": true
    },
    {
      "inputs": [],
      "name": "Wallet",
      "outputs": [
        {
          "internalType": "address payable",
          "name": "",
          "type": "address"
        }
      ],
      "stateMutability": "view",
      "type": "function",
      "constant": true
    },
    {
      "inputs": [
        {
          "internalType": "address",
          "name": "beneficiary",
          "type": "address"
        }
      ],
      "name": "buyTokens",
      "outputs": [],
      "stateMutability": "payable",
      "type": "function",
      "payable": true
    },
    {
      "inputs": [],
      "name": "weiRaised",
      "outputs": [
        {
          "internalType": "uint256",
          "name": "",
          "type": "uint256"
        }
      ],
      "stateMutability": "view",
      "type": "function",
      "constant": true
    },
    {
      "stateMutability": "payable",
      "type": "receive",
      "payable": true
    }
  ],
  "bytecode": "0x60806040523480156200001157600080fd5b5060405162001180380380620011808339818101604052810190620000379190620002a1565b83838360016000819055506000831162000088576040517f08c379a00000000000000000000000000000000000000000000000000000000081526004016200007f90620003aa565b60405180910390fd5b600073ffffffffffffffffffffffffffffffffffffffff168273ffffffffffffffffffffffffffffffffffffffff161415620000fb576040517f08c379a0000000000000000000000000000000000000000000000000000000008152600401620000f290620003cc565b60405180910390fd5b600073ffffffffffffffffffffffffffffffffffffffff168173ffffffffffffffffffffffffffffffffffffffff1614156200016e576040517f08c379a0000000000000000000000000000000000000000000000000000000008152600401620001659062000388565b60405180910390fd5b8260038190555081600260006101000a81548173ffffffffffffffffffffffffffffffffffffffff021916908373ffffffffffffffffffffffffffffffffffffffff16021790555080600160006101000a81548173ffffffffffffffffffffffffffffffffffffffff021916908373ffffffffffffffffffffffffffffffffffffffff16021790555050505080600560006101000a81548173ffffffffffffffffffffffffffffffffffffffff021916908373ffffffffffffffffffffffffffffffffffffffff16021790555050505050620005ad565b600081519050620002568162000545565b92915050565b6000815190506200026d816200055f565b92915050565b600081519050620002848162000579565b92915050565b6000815190506200029b8162000593565b92915050565b60008060008060808587031215620002be57620002bd62000479565b5b6000620002ce878288016200028a565b9450506020620002e18782880162000245565b9350506040620002f4878288016200025c565b9250506060620003078782880162000273565b91505092959194509250565b600062000322602483620003ee565b91506200032f826200047e565b604082019050919050565b600062000349601483620003ee565b91506200035682620004cd565b602082019050919050565b600062000370602583620003ee565b91506200037d82620004f6565b604082019050919050565b60006020820190508181036000830152620003a38162000313565b9050919050565b60006020820190508181036000830152620003c5816200033a565b9050919050565b60006020820190508181036000830152620003e78162000361565b9050919050565b600082825260208201905092915050565b60006200040c826200044f565b9050919050565b600062000420826200044f565b9050919050565b60006200043482620003ff565b9050919050565b60006200044882620003ff565b9050919050565b600073ffffffffffffffffffffffffffffffffffffffff82169050919050565b6000819050919050565b600080fd5b7f43726f776473616c653a20746f6b656e20697320746865207a65726f2061646460008201527f7265737300000000000000000000000000000000000000000000000000000000602082015250565b7f43726f776473616c653a20726174652069732030000000000000000000000000600082015250565b7f43726f776473616c653a2077616c6c657420697320746865207a65726f20616460008201527f6472657373000000000000000000000000000000000000000000000000000000602082015250565b620005508162000413565b81146200055c57600080fd5b50565b6200056a8162000427565b81146200057657600080fd5b50565b62000584816200043b565b81146200059057600080fd5b50565b6200059e816200046f565b8114620005aa57600080fd5b50565b610bc380620005bd6000396000f3fe60806040526004361061004e5760003560e01c80630e1b39fb1461006a5780631b8e94a1146100955780634042b66f146100c0578063c2412676146100eb578063ec8ac4d81461011657610065565b366100655761006361005e610132565b61013a565b005b600080fd5b34801561007657600080fd5b5061007f610260565b60405161008c91906107a4565b60405180910390f35b3480156100a157600080fd5b506100aa61028a565b6040516100b791906108a3565b60405180910390f35b3480156100cc57600080fd5b506100d5610294565b6040516100e291906108a3565b60405180910390f35b3480156100f757600080fd5b5061010061029e565b60405161010d91906107e8565b60405180910390f35b610130600480360381019061012b9190610644565b61013a565b005b600033905090565b60026000541415610180576040517f08c379a000000000000000000000000000000000000000000000000000000000815260040161017790610863565b60405180910390fd5b6002600081905550600034905061019782826102c8565b60006101a2826103c0565b90506101b9826004546103de90919063ffffffff16565b6004819055506101c983826103f4565b8273ffffffffffffffffffffffffffffffffffffffff166101e8610132565b73ffffffffffffffffffffffffffffffffffffffff167f6faf93231a456e552dbc9961f58d9713ee4f2e69d15f1975b050ef0911053a7b848460405161022f9291906108be565b60405180910390a36102418383610402565b610249610406565b6102538383610471565b5050600160008190555050565b6000600260009054906101000a900473ffffffffffffffffffffffffffffffffffffffff16905090565b6000600354905090565b6000600454905090565b6000600160009054906101000a900473ffffffffffffffffffffffffffffffffffffffff16905090565b6102d28282610475565b600560009054906101000a900473ffffffffffffffffffffffffffffffffffffffff1673ffffffffffffffffffffffffffffffffffffffff16632eb10fde836040518263ffffffff1660e01b815260040161032d9190610789565b60206040518083038186803b15801561034557600080fd5b505afa158015610359573d6000803e3d6000fd5b505050506040513d601f19601f8201168201806040525081019061037d9190610671565b6103bc576040517f08c379a00000000000000000000000000000000000000000000000000000000081526004016103b390610803565b60405180910390fd5b5050565b60006103d76003548361052d90919063ffffffff16565b9050919050565b600081836103ec91906108f8565b905092915050565b6103fe8282610543565b5050565b5050565b600260009054906101000a900473ffffffffffffffffffffffffffffffffffffffff1673ffffffffffffffffffffffffffffffffffffffff166108fc349081150290604051600060405180830381858888f1935050505015801561046e573d6000803e3d6000fd5b50565b5050565b600073ffffffffffffffffffffffffffffffffffffffff168273ffffffffffffffffffffffffffffffffffffffff1614156104e5576040517f08c379a00000000000000000000000000000000000000000000000000000000081526004016104dc90610823565b60405180910390fd5b6000811415610529576040517f08c379a000000000000000000000000000000000000000000000000000000000815260040161052090610883565b60405180910390fd5b5050565b6000818361053b919061094e565b905092915050565b61054b61029e565b73ffffffffffffffffffffffffffffffffffffffff166340c10f1983836040518363ffffffff1660e01b81526004016105859291906107bf565b602060405180830381600087803b15801561059f57600080fd5b505af11580156105b3573d6000803e3d6000fd5b505050506040513d601f19601f820116820180604052508101906105d79190610671565b610616576040517f08c379a000000000000000000000000000000000000000000000000000000000815260040161060d90610843565b60405180910390fd5b5050565b60008135905061062981610b5f565b92915050565b60008151905061063e81610b76565b92915050565b60006020828403121561065a57610659610a67565b5b60006106688482850161061a565b91505092915050565b60006020828403121561068757610686610a67565b5b60006106958482850161062f565b91505092915050565b6106a7816109ba565b82525050565b6106b6816109a8565b82525050565b6106c581610a02565b82525050565b60006106d86010836108e7565b91506106e382610a6c565b602082019050919050565b60006106fb602a836108e7565b915061070682610a95565b604082019050919050565b600061071e601f836108e7565b915061072982610ae4565b602082019050919050565b6000610741601f836108e7565b915061074c82610b0d565b602082019050919050565b60006107646019836108e7565b915061076f82610b36565b602082019050919050565b610783816109f8565b82525050565b600060208201905061079e60008301846106ad565b92915050565b60006020820190506107b9600083018461069e565b92915050565b60006040820190506107d460008301856106ad565b6107e1602083018461077a565b9392505050565b60006020820190506107fd60008301846106bc565b92915050565b6000602082019050818103600083015261081c816106cb565b9050919050565b6000602082019050818103600083015261083c816106ee565b9050919050565b6000602082019050818103600083015261085c81610711565b9050919050565b6000602082019050818103600083015261087c81610734565b9050919050565b6000602082019050818103600083015261089c81610757565b9050919050565b60006020820190506108b8600083018461077a565b92915050565b60006040820190506108d3600083018561077a565b6108e0602083018461077a565b9392505050565b600082825260208201905092915050565b6000610903826109f8565b915061090e836109f8565b9250827fffffffffffffffffffffffffffffffffffffffffffffffffffffffffffffffff0382111561094357610942610a38565b5b828201905092915050565b6000610959826109f8565b9150610964836109f8565b9250817fffffffffffffffffffffffffffffffffffffffffffffffffffffffffffffffff048311821515161561099d5761099c610a38565b5b828202905092915050565b60006109b3826109d8565b9050919050565b60006109c5826109d8565b9050919050565b60008115159050919050565b600073ffffffffffffffffffffffffffffffffffffffff82169050919050565b6000819050919050565b6000610a0d82610a14565b9050919050565b6000610a1f82610a26565b9050919050565b6000610a31826109d8565b9050919050565b7f4e487b7100000000000000000000000000000000000000000000000000000000600052601160045260246000fd5b600080fd5b7f6e6f7420636f706c657465642079657400000000000000000000000000000000600082015250565b7f43726f776473616c653a2062656e656669636961727920697320746865207a6560008201527f726f206164647265737300000000000000000000000000000000000000000000602082015250565b7f4d696e74656443726f776473616c653a206d696e74696e67206661696c656400600082015250565b7f5265656e7472616e637947756172643a207265656e7472616e742063616c6c00600082015250565b7f43726f776473616c653a20776569416d6f756e74206973203000000000000000600082015250565b610b68816109a8565b8114610b7357600080fd5b50565b610b7f816109cc565b8114610b8a57600080fd5b5056fea26469706673582212205589b5e2f80c79831ee437a94e4e56932e81103ea04665f51d0b7c1e3804656564736f6c63430008070033",
  "immutableReferences": {},
  "source": "//SPDX-License-Identifier: MIT\r\n\r\npragma solidity ^0.8.0;\r\n\r\n//import \"./CrowdSale.sol\";\r\nimport \"./KycContract.sol\";\r\nimport \"./MintedCrowdsale.sol\";\r\n\r\ncontract MyTokenSale is MintedCrowdsale {\r\n\r\n    KycContract kyc;\r\n    constructor( uint256 rate /* rate in TKNbits */ ,address payable wallet, IERC20 _token, KycContract _kyc) MintedCrowdsale() Crowdsale(rate, wallet, _token) {\r\n        kyc = _kyc;\r\n    }\r\n\r\n    function _preValidatePurchase(address beneficiary, uint256 weiAmount) internal view override {\r\n        super._preValidatePurchase(beneficiary,weiAmount);\r\n        require(kyc.KycCompleted(beneficiary), \"not copleted yet\");\r\n    }\r\n}",
  "sourcePath": "C:\\Users\\Chris Lytrokapis\\Desktop\\Dev\\tokensaleV2\\contracts\\MyTokenSale.sol",
  "compiler": {
    "name": "solc",
    "version": "0.8.7+commit.e28d00a7.Emscripten.clang"
  },
  "schemaVersion": "3.4.3",
  "updatedAt": "2021-08-31T18:02:01.329Z",
  "networkType": "ethereum",
  "devdoc": {
    "kind": "dev",
    "methods": {
      "Rate()": {
        "returns": {
          "_0": "the number of token units a buyer gets per wei."
        }
      },
      "Token()": {
        "returns": {
          "_0": "the token being sold."
        }
      },
      "Wallet()": {
        "returns": {
          "_0": "the address where funds are collected."
        }
      },
      "buyTokens(address)": {
        "details": "low level token purchase ***DO NOT OVERRIDE*** This function has a non-reentrancy guard, so it shouldn't be called by another `nonReentrant` function.",
        "params": {
          "beneficiary": "Recipient of the token purchase"
        }
      },
      "weiRaised()": {
        "returns": {
          "_0": "the amount of wei raised."
        }
      }
    },
    "version": 1
  },
  "userdoc": {
    "events": {
      "TokensPurchased(address,address,uint256,uint256)": {
        "notice": "Event for token purchase logging"
      }
    },
    "kind": "user",
    "methods": {},
    "version": 1
  }
}